{
  "contractName": "Campign",
  "abi": [
    {
      "inputs": [
        {
          "internalType": "uint256",
          "name": "_min",
          "type": "uint256"
        },
        {
          "internalType": "address",
          "name": "sender",
          "type": "address"
        }
      ],
      "stateMutability": "nonpayable",
      "type": "constructor"
    },
    {
      "inputs": [
        {
          "internalType": "address",
          "name": "",
          "type": "address"
        }
      ],
      "name": "approvers",
      "outputs": [
        {
          "internalType": "bool",
          "name": "",
          "type": "bool"
        }
      ],
      "stateMutability": "view",
      "type": "function"
    },
    {
      "inputs": [],
      "name": "campaignDescription",
      "outputs": [
        {
          "internalType": "string",
          "name": "",
          "type": "string"
        }
      ],
      "stateMutability": "view",
      "type": "function"
    },
    {
      "inputs": [],
      "name": "campaignTitle",
      "outputs": [
        {
          "internalType": "string",
          "name": "",
          "type": "string"
        }
      ],
      "stateMutability": "view",
      "type": "function"
    },
    {
      "inputs": [],
      "name": "coverImageURL",
      "outputs": [
        {
          "internalType": "string",
          "name": "",
          "type": "string"
        }
      ],
      "stateMutability": "view",
      "type": "function"
    },
    {
      "inputs": [],
      "name": "manager",
      "outputs": [
        {
          "internalType": "address",
          "name": "",
          "type": "address"
        }
      ],
      "stateMutability": "view",
      "type": "function"
    },
    {
      "inputs": [],
      "name": "minContribution",
      "outputs": [
        {
          "internalType": "uint256",
          "name": "",
          "type": "uint256"
        }
      ],
      "stateMutability": "view",
      "type": "function"
    },
    {
      "inputs": [],
      "name": "targetAmount",
      "outputs": [
        {
          "internalType": "uint256",
          "name": "",
          "type": "uint256"
        }
      ],
      "stateMutability": "view",
      "type": "function"
    },
    {
      "inputs": [],
      "name": "contribute",
      "outputs": [],
      "stateMutability": "payable",
      "type": "function"
    },
    {
      "inputs": [
        {
          "internalType": "string",
          "name": "description",
          "type": "string"
        },
        {
          "internalType": "uint256",
          "name": "value",
          "type": "uint256"
        },
        {
          "internalType": "address",
          "name": "recipient",
          "type": "address"
        }
      ],
      "name": "createRequest",
      "outputs": [],
      "stateMutability": "nonpayable",
      "type": "function"
    },
    {
      "inputs": [],
      "name": "getSummaryOfContract",
      "outputs": [
        {
          "internalType": "uint256",
          "name": "",
          "type": "uint256"
        },
        {
          "internalType": "address",
          "name": "",
          "type": "address"
        },
        {
          "internalType": "uint256",
          "name": "",
          "type": "uint256"
        },
        {
          "internalType": "uint256",
          "name": "",
          "type": "uint256"
        },
        {
          "internalType": "uint256",
          "name": "",
          "type": "uint256"
        }
      ],
      "stateMutability": "view",
      "type": "function"
    },
    {
      "inputs": [],
      "name": "getRequestCount",
      "outputs": [
        {
          "internalType": "uint256",
          "name": "",
          "type": "uint256"
        }
      ],
      "stateMutability": "view",
      "type": "function"
    },
    {
      "inputs": [
        {
          "internalType": "uint256",
          "name": "_index",
          "type": "uint256"
        }
      ],
      "name": "getRequestAtIndex",
      "outputs": [
        {
          "internalType": "uint256",
          "name": "",
          "type": "uint256"
        },
        {
          "internalType": "uint256",
          "name": "",
          "type": "uint256"
        },
        {
          "internalType": "address",
          "name": "",
          "type": "address"
        },
        {
          "internalType": "string",
          "name": "",
          "type": "string"
        },
        {
          "internalType": "bool",
          "name": "",
          "type": "bool"
        }
      ],
      "stateMutability": "view",
      "type": "function"
    },
    {
      "inputs": [
        {
          "internalType": "uint256",
          "name": "index",
          "type": "uint256"
        }
      ],
      "name": "approveRequest",
      "outputs": [],
      "stateMutability": "nonpayable",
      "type": "function"
    }
  ],
  "bytecode": "0x60806040523480156200001157600080fd5b506040516200122d3803806200122d83398181016040528101906200003791906200012c565b8160078190555080600860006101000a81548173ffffffffffffffffffffffffffffffffffffffff021916908373ffffffffffffffffffffffffffffffffffffffff160217905550505062000173565b600080fd5b6000819050919050565b620000a1816200008c565b8114620000ad57600080fd5b50565b600081519050620000c18162000096565b92915050565b600073ffffffffffffffffffffffffffffffffffffffff82169050919050565b6000620000f482620000c7565b9050919050565b6200010681620000e7565b81146200011257600080fd5b50565b6000815190506200012681620000fb565b92915050565b6000806040838503121562000146576200014562000087565b5b60006200015685828601620000b0565b9250506020620001698582860162000115565b9150509250929050565b6110aa80620001836000396000f3fe6080604052600436106100c25760003560e01c80638a9cfd551161007f578063aeef75fd11610059578063aeef75fd1461025e578063d7bb99ba1461029f578063d7d1bbdb146102a9578063ed5a510d146102d2576100c2565b80638a9cfd55146101df578063953b8fb814610208578063aaffadf314610233576100c2565b80630a144391146100c7578063110842cb146101045780633fad18341461012f578063481c6a751461015a578063703731ef14610185578063835a6172146101b4575b600080fd5b3480156100d357600080fd5b506100ee60048036038101906100e99190610b17565b6102fd565b6040516100fb9190610b5f565b60405180910390f35b34801561011057600080fd5b5061011961031d565b6040516101269190610c13565b60405180910390f35b34801561013b57600080fd5b506101446103ab565b6040516101519190610c4e565b60405180910390f35b34801561016657600080fd5b5061016f6103b5565b60405161017c9190610c78565b60405180910390f35b34801561019157600080fd5b5061019a6103db565b6040516101ab959493929190610c93565b60405180910390f35b3480156101c057600080fd5b506101c9610421565b6040516101d69190610c13565b60405180910390f35b3480156101eb57600080fd5b5061020660048036038101906102019190610e47565b6104af565b005b34801561021457600080fd5b5061021d6105be565b60405161022a9190610c4e565b60405180910390f35b34801561023f57600080fd5b506102486105c4565b6040516102559190610c4e565b60405180910390f35b34801561026a57600080fd5b5061028560048036038101906102809190610eb6565b6105ca565b604051610296959493929190610ee3565b60405180910390f35b6102a76106ce565b005b3480156102b557600080fd5b506102d060048036038101906102cb9190610eb6565b61074f565b005b3480156102de57600080fd5b506102e76108b1565b6040516102f49190610c13565b60405180910390f35b60096020528060005260406000206000915054906101000a900460ff1681565b6002805461032a90610f6c565b80601f016020809104026020016040519081016040528092919081815260200182805461035690610f6c565b80156103a35780601f10610378576101008083540402835291602001916103a3565b820191906000526020600020905b81548152906001019060200180831161038657829003601f168201915b505050505081565b6000600654905090565b600860009054906101000a900473ffffffffffffffffffffffffffffffffffffffff1681565b6000806000806000600754600860009054906101000a900473ffffffffffffffffffffffffffffffffffffffff16600a5460065447945094509450945094509091929394565b6001805461042e90610f6c565b80601f016020809104026020016040519081016040528092919081815260200182805461045a90610f6c565b80156104a75780601f1061047c576101008083540402835291602001916104a7565b820191906000526020600020905b81548152906001019060200180831161048a57829003601f168201915b505050505081565b600860009054906101000a900473ffffffffffffffffffffffffffffffffffffffff1673ffffffffffffffffffffffffffffffffffffffff163373ffffffffffffffffffffffffffffffffffffffff161461050957600080fd5b6000600560006006600081548092919061052290610fcc565b91905055815260200190815260200160002090508381600001908051906020019061054e929190610a02565b50828160010181905550818160020160006101000a81548173ffffffffffffffffffffffffffffffffffffffff021916908373ffffffffffffffffffffffffffffffffffffffff16021790555060008160020160146101000a81548160ff02191690831515021790555050505050565b60045481565b60075481565b60008060006060600080600560008881526020019081526020016000209050806001015481600301548260020160009054906101000a900473ffffffffffffffffffffffffffffffffffffffff16836000018460020160149054906101000a900460ff1681805461063a90610f6c565b80601f016020809104026020016040519081016040528092919081815260200182805461066690610f6c565b80156106b35780601f10610688576101008083540402835291602001916106b3565b820191906000526020600020905b81548152906001019060200180831161069657829003601f168201915b50505050509150955095509550955095505091939590929450565b6007543410156106dd57600080fd5b6001600960003373ffffffffffffffffffffffffffffffffffffffff1673ffffffffffffffffffffffffffffffffffffffff16815260200190815260200160002060006101000a81548160ff021916908315150217905550600a600081548092919061074890610fcc565b9190505550565b6000600560008381526020019081526020016000209050600960003373ffffffffffffffffffffffffffffffffffffffff1673ffffffffffffffffffffffffffffffffffffffff16815260200190815260200160002060009054906101000a900460ff166107bc57600080fd5b8060040160003373ffffffffffffffffffffffffffffffffffffffff1673ffffffffffffffffffffffffffffffffffffffff16815260200190815260200160002060009054906101000a900460ff161561081557600080fd5b60018160040160003373ffffffffffffffffffffffffffffffffffffffff1673ffffffffffffffffffffffffffffffffffffffff16815260200190815260200160002060006101000a81548160ff02191690831515021790555080600301600081548092919061088490610fcc565b91905055506002600a546108989190611043565b816003015411156108ad576108ac8261093f565b5b5050565b600380546108be90610f6c565b80601f01602080910402602001604051908101604052809291908181526020018280546108ea90610f6c565b80156109375780601f1061090c57610100808354040283529160200191610937565b820191906000526020600020905b81548152906001019060200180831161091a57829003601f168201915b505050505081565b60006005600083815260200190815260200160002090508060020160149054906101000a900460ff161561097257600080fd5b8060020160009054906101000a900473ffffffffffffffffffffffffffffffffffffffff1673ffffffffffffffffffffffffffffffffffffffff166108fc82600101549081150290604051600060405180830381858888f193505050501580156109e0573d6000803e3d6000fd5b5060018160020160146101000a81548160ff0219169083151502179055505050565b828054610a0e90610f6c565b90600052602060002090601f016020900481019282610a305760008555610a77565b82601f10610a4957805160ff1916838001178555610a77565b82800160010185558215610a77579182015b82811115610a76578251825591602001919060010190610a5b565b5b509050610a849190610a88565b5090565b5b80821115610aa1576000816000905550600101610a89565b5090565b6000604051905090565b600080fd5b600080fd5b600073ffffffffffffffffffffffffffffffffffffffff82169050919050565b6000610ae482610ab9565b9050919050565b610af481610ad9565b8114610aff57600080fd5b50565b600081359050610b1181610aeb565b92915050565b600060208284031215610b2d57610b2c610aaf565b5b6000610b3b84828501610b02565b91505092915050565b60008115159050919050565b610b5981610b44565b82525050565b6000602082019050610b746000830184610b50565b92915050565b600081519050919050565b600082825260208201905092915050565b60005b83811015610bb4578082015181840152602081019050610b99565b83811115610bc3576000848401525b50505050565b6000601f19601f8301169050919050565b6000610be582610b7a565b610bef8185610b85565b9350610bff818560208601610b96565b610c0881610bc9565b840191505092915050565b60006020820190508181036000830152610c2d8184610bda565b905092915050565b6000819050919050565b610c4881610c35565b82525050565b6000602082019050610c636000830184610c3f565b92915050565b610c7281610ad9565b82525050565b6000602082019050610c8d6000830184610c69565b92915050565b600060a082019050610ca86000830188610c3f565b610cb56020830187610c69565b610cc26040830186610c3f565b610ccf6060830185610c3f565b610cdc6080830184610c3f565b9695505050505050565b600080fd5b600080fd5b7f4e487b7100000000000000000000000000000000000000000000000000000000600052604160045260246000fd5b610d2882610bc9565b810181811067ffffffffffffffff82111715610d4757610d46610cf0565b5b80604052505050565b6000610d5a610aa5565b9050610d668282610d1f565b919050565b600067ffffffffffffffff821115610d8657610d85610cf0565b5b610d8f82610bc9565b9050602081019050919050565b82818337600083830152505050565b6000610dbe610db984610d6b565b610d50565b905082815260208101848484011115610dda57610dd9610ceb565b5b610de5848285610d9c565b509392505050565b600082601f830112610e0257610e01610ce6565b5b8135610e12848260208601610dab565b91505092915050565b610e2481610c35565b8114610e2f57600080fd5b50565b600081359050610e4181610e1b565b92915050565b600080600060608486031215610e6057610e5f610aaf565b5b600084013567ffffffffffffffff811115610e7e57610e7d610ab4565b5b610e8a86828701610ded565b9350506020610e9b86828701610e32565b9250506040610eac86828701610b02565b9150509250925092565b600060208284031215610ecc57610ecb610aaf565b5b6000610eda84828501610e32565b91505092915050565b600060a082019050610ef86000830188610c3f565b610f056020830187610c3f565b610f126040830186610c69565b8181036060830152610f248185610bda565b9050610f336080830184610b50565b9695505050505050565b7f4e487b7100000000000000000000000000000000000000000000000000000000600052602260045260246000fd5b60006002820490506001821680610f8457607f821691505b602082108103610f9757610f96610f3d565b5b50919050565b7f4e487b7100000000000000000000000000000000000000000000000000000000600052601160045260246000fd5b6000610fd782610c35565b91507fffffffffffffffffffffffffffffffffffffffffffffffffffffffffffffffff820361100957611008610f9d565b5b600182019050919050565b7f4e487b7100000000000000000000000000000000000000000000000000000000600052601260045260246000fd5b600061104e82610c35565b915061105983610c35565b92508261106957611068611014565b5b82820490509291505056fea2646970667358221220d6e353548dff7c0e49f7c653404ff57c6bea8fb3e1b5374760b6ae48e54dc9cf64736f6c634300080d0033",
  "immutableReferences": {},
  "source": "// SPDX-License-Identifier: GPL-3.0\npragma solidity ^0.8.13;\n\ncontract Campign {\n    struct Request {\n        string description;\n        uint256 value;\n        address recipient;\n        bool completed;\n        uint256 approvalCount;\n        mapping(address => bool) approvals;\n    }\n\n    mapping(address => bool) approvals;\n    string public campaignTitle;\n    string public campaignDescription;\n    string public coverImageURL;\n    uint256 public targetAmount;\n\n    mapping(uint256 => Request) requests;\n    uint256 numRequests;\n\n    uint256 public minContribution;\n    address public manager;\n    mapping(address => bool) public approvers;\n    uint256 private contributors;\n\n    constructor(uint256 _min, address sender) {\n        minContribution = _min;\n        manager = sender;\n    }\n\n    function contribute() public payable {\n        require(msg.value >= minContribution);\n        approvers[msg.sender] = true;\n        contributors++;\n    }\n\n    modifier restricted() {\n        require(msg.sender == manager);\n        _;\n    }\n\n    function createRequest(\n        string memory description,\n        uint256 value,\n        address recipient\n    ) public restricted {\n        // Request memory newRequest = requests.push();\n        Request storage newRequest = requests[numRequests++];\n        newRequest.description = description;\n        newRequest.value = value;\n        newRequest.recipient = recipient;\n        newRequest.completed = false;\n        // newRequest.approvals = {};\n        // Request memory newRequest = Request(description, value, recipient, false, 0);\n        // requests.push(newRequest);\n    }\n\n    function getSummaryOfContract()\n        public\n        view\n        returns (\n            uint256,\n            address,\n            uint256,\n            uint256,\n            uint256\n        )\n    {\n        return (\n            minContribution,\n            manager,\n            contributors,\n            numRequests,\n            address(this).balance\n        );\n    }\n\n    function getRequestCount() public view returns (uint256) {\n        return (numRequests);\n    }\n\n    function getRequestAtIndex(uint256 _index)\n        public\n        view\n        returns (\n            uint256,\n            uint256,\n            address,\n            string memory,\n            bool\n        )\n    {\n        Request storage r = requests[_index];\n        return (\n            r.value,\n            r.approvalCount,\n            r.recipient,\n            r.description,\n            r.completed\n        );\n    }\n\n    function finalizeRequest(uint256 index) private {\n        Request storage request = requests[index];\n        require(!request.completed);\n        payable(request.recipient).transfer(request.value);\n        request.completed = true;\n    }\n\n    function approveRequest(uint256 index) public {\n        Request storage ind = requests[index];\n        require(approvers[msg.sender]);\n        require(!ind.approvals[msg.sender]);\n        ind.approvals[msg.sender] = true;\n        ind.approvalCount++;\n        if (ind.approvalCount > (contributors / 2)) {\n            finalizeRequest(index);\n        }\n    }\n}\n",
  "sourcePath": "/Users/sumukhahegde/Code/college_project/crowd-funding/solidity/contracts/Campaign.sol",
  "compiler": {
    "name": "solc",
    "version": "0.8.13+commit.abaa5c0e.Emscripten.clang"
  },
  "schemaVersion": "3.4.7",
  "updatedAt": "2022-05-20T19:47:35.183Z",
  "devdoc": {
    "kind": "dev",
    "methods": {},
    "version": 1
  },
  "userdoc": {
    "kind": "user",
    "methods": {},
    "version": 1
  }
}