{
  "contractName": "Campign",
  "abi": [
    {
      "inputs": [
        {
          "internalType": "uint256",
          "name": "_min",
          "type": "uint256"
        },
        {
          "internalType": "address",
          "name": "sender",
          "type": "address"
        }
      ],
      "stateMutability": "nonpayable",
      "type": "constructor"
    },
    {
      "inputs": [
        {
          "internalType": "address",
          "name": "",
          "type": "address"
        }
      ],
      "name": "approvers",
      "outputs": [
        {
          "internalType": "bool",
          "name": "",
          "type": "bool"
        }
      ],
      "stateMutability": "view",
      "type": "function"
    },
    {
      "inputs": [],
      "name": "campaignDescription",
      "outputs": [
        {
          "internalType": "string",
          "name": "",
          "type": "string"
        }
      ],
      "stateMutability": "view",
      "type": "function"
    },
    {
      "inputs": [],
      "name": "campaignTitle",
      "outputs": [
        {
          "internalType": "string",
          "name": "",
          "type": "string"
        }
      ],
      "stateMutability": "view",
      "type": "function"
    },
    {
      "inputs": [],
      "name": "coverImageURL",
      "outputs": [
        {
          "internalType": "string",
          "name": "",
          "type": "string"
        }
      ],
      "stateMutability": "view",
      "type": "function"
    },
    {
      "inputs": [],
      "name": "manager",
      "outputs": [
        {
          "internalType": "address",
          "name": "",
          "type": "address"
        }
      ],
      "stateMutability": "view",
      "type": "function"
    },
    {
      "inputs": [],
      "name": "minContribution",
      "outputs": [
        {
          "internalType": "uint256",
          "name": "",
          "type": "uint256"
        }
      ],
      "stateMutability": "view",
      "type": "function"
    },
    {
      "inputs": [],
      "name": "targetAmount",
      "outputs": [
        {
          "internalType": "uint256",
          "name": "",
          "type": "uint256"
        }
      ],
      "stateMutability": "view",
      "type": "function"
    },
    {
      "inputs": [],
      "name": "contribute",
      "outputs": [],
      "stateMutability": "payable",
      "type": "function"
    },
    {
      "inputs": [
        {
          "internalType": "string",
          "name": "description",
          "type": "string"
        },
        {
          "internalType": "uint256",
          "name": "value",
          "type": "uint256"
        },
        {
          "internalType": "address",
          "name": "recipient",
          "type": "address"
        }
      ],
      "name": "createRequest",
      "outputs": [],
      "stateMutability": "nonpayable",
      "type": "function"
    },
    {
      "inputs": [],
      "name": "getSummaryOfContract",
      "outputs": [
        {
          "internalType": "uint256",
          "name": "",
          "type": "uint256"
        },
        {
          "internalType": "address",
          "name": "",
          "type": "address"
        },
        {
          "internalType": "uint256",
          "name": "",
          "type": "uint256"
        },
        {
          "internalType": "uint256",
          "name": "",
          "type": "uint256"
        },
        {
          "internalType": "uint256",
          "name": "",
          "type": "uint256"
        }
      ],
      "stateMutability": "view",
      "type": "function"
    },
    {
      "inputs": [],
      "name": "getRequestCount",
      "outputs": [
        {
          "internalType": "uint256",
          "name": "",
          "type": "uint256"
        }
      ],
      "stateMutability": "view",
      "type": "function"
    },
    {
      "inputs": [
        {
          "internalType": "uint256",
          "name": "index",
          "type": "uint256"
        }
      ],
      "name": "approveRequest",
      "outputs": [],
      "stateMutability": "nonpayable",
      "type": "function"
    },
    {
      "inputs": [
        {
          "internalType": "uint256",
          "name": "index",
          "type": "uint256"
        }
      ],
      "name": "finalizeRequest",
      "outputs": [],
      "stateMutability": "nonpayable",
      "type": "function"
    }
  ],
  "bytecode": "0x60806040523480156200001157600080fd5b506040516200110b3803806200110b83398181016040528101906200003791906200012c565b8160078190555080600860006101000a81548173ffffffffffffffffffffffffffffffffffffffff021916908373ffffffffffffffffffffffffffffffffffffffff160217905550505062000173565b600080fd5b6000819050919050565b620000a1816200008c565b8114620000ad57600080fd5b50565b600081519050620000c18162000096565b92915050565b600073ffffffffffffffffffffffffffffffffffffffff82169050919050565b6000620000f482620000c7565b9050919050565b6200010681620000e7565b81146200011257600080fd5b50565b6000815190506200012681620000fb565b92915050565b6000806040838503121562000146576200014562000087565b5b60006200015685828601620000b0565b9250506020620001698582860162000115565b9150509250929050565b610f8880620001836000396000f3fe6080604052600436106100c25760003560e01c8063835a61721161007f578063aaffadf311610059578063aaffadf31461025c578063d7bb99ba14610287578063d7d1bbdb14610291578063ed5a510d146102ba576100c2565b8063835a6172146101dd5780638a9cfd5514610208578063953b8fb814610231576100c2565b806303441006146100c75780630a144391146100f0578063110842cb1461012d5780633fad183414610158578063481c6a7514610183578063703731ef146101ae575b600080fd5b3480156100d357600080fd5b506100ee60048036038101906100e99190610a27565b6102e5565b005b3480156100fc57600080fd5b5061011760048036038101906101129190610ab2565b610420565b6040516101249190610afa565b60405180910390f35b34801561013957600080fd5b50610142610440565b60405161014f9190610bae565b60405180910390f35b34801561016457600080fd5b5061016d6104ce565b60405161017a9190610bdf565b60405180910390f35b34801561018f57600080fd5b506101986104d8565b6040516101a59190610c09565b60405180910390f35b3480156101ba57600080fd5b506101c36104fe565b6040516101d4959493929190610c24565b60405180910390f35b3480156101e957600080fd5b506101f2610544565b6040516101ff9190610bae565b60405180910390f35b34801561021457600080fd5b5061022f600480360381019061022a9190610dac565b6105d2565b005b34801561023d57600080fd5b506102466106e1565b6040516102539190610bdf565b60405180910390f35b34801561026857600080fd5b506102716106e7565b60405161027e9190610bdf565b60405180910390f35b61028f6106ed565b005b34801561029d57600080fd5b506102b860048036038101906102b39190610a27565b61076e565b005b3480156102c657600080fd5b506102cf6108ac565b6040516102dc9190610bae565b60405180910390f35b600860009054906101000a900473ffffffffffffffffffffffffffffffffffffffff1673ffffffffffffffffffffffffffffffffffffffff163373ffffffffffffffffffffffffffffffffffffffff161461033f57600080fd5b60006005600083815260200190815260200160002090508060020160149054906101000a900460ff161561037257600080fd5b6002600a546103819190610e79565b81600301541161039057600080fd5b8060020160009054906101000a900473ffffffffffffffffffffffffffffffffffffffff1673ffffffffffffffffffffffffffffffffffffffff166108fc82600101549081150290604051600060405180830381858888f193505050501580156103fe573d6000803e3d6000fd5b5060018160020160146101000a81548160ff0219169083151502179055505050565b60096020528060005260406000206000915054906101000a900460ff1681565b6002805461044d90610ed9565b80601f016020809104026020016040519081016040528092919081815260200182805461047990610ed9565b80156104c65780601f1061049b576101008083540402835291602001916104c6565b820191906000526020600020905b8154815290600101906020018083116104a957829003601f168201915b505050505081565b6000600654905090565b600860009054906101000a900473ffffffffffffffffffffffffffffffffffffffff1681565b6000806000806000600754600860009054906101000a900473ffffffffffffffffffffffffffffffffffffffff16600a5460065447945094509450945094509091929394565b6001805461055190610ed9565b80601f016020809104026020016040519081016040528092919081815260200182805461057d90610ed9565b80156105ca5780601f1061059f576101008083540402835291602001916105ca565b820191906000526020600020905b8154815290600101906020018083116105ad57829003601f168201915b505050505081565b600860009054906101000a900473ffffffffffffffffffffffffffffffffffffffff1673ffffffffffffffffffffffffffffffffffffffff163373ffffffffffffffffffffffffffffffffffffffff161461062c57600080fd5b6000600560006006600081548092919061064590610f0a565b91905055815260200190815260200160002090508381600001908051906020019061067192919061093a565b50828160010181905550818160020160006101000a81548173ffffffffffffffffffffffffffffffffffffffff021916908373ffffffffffffffffffffffffffffffffffffffff16021790555060008160020160146101000a81548160ff02191690831515021790555050505050565b60045481565b60075481565b6007543410156106fc57600080fd5b6001600960003373ffffffffffffffffffffffffffffffffffffffff1673ffffffffffffffffffffffffffffffffffffffff16815260200190815260200160002060006101000a81548160ff021916908315150217905550600a600081548092919061076790610f0a565b9190505550565b6000600560008381526020019081526020016000209050600960003373ffffffffffffffffffffffffffffffffffffffff1673ffffffffffffffffffffffffffffffffffffffff16815260200190815260200160002060009054906101000a900460ff166107db57600080fd5b8060040160003373ffffffffffffffffffffffffffffffffffffffff1673ffffffffffffffffffffffffffffffffffffffff16815260200190815260200160002060009054906101000a900460ff161561083457600080fd5b60018160040160003373ffffffffffffffffffffffffffffffffffffffff1673ffffffffffffffffffffffffffffffffffffffff16815260200190815260200160002060006101000a81548160ff0219169083151502179055508060030160008154809291906108a390610f0a565b91905055505050565b600380546108b990610ed9565b80601f01602080910402602001604051908101604052809291908181526020018280546108e590610ed9565b80156109325780601f1061090757610100808354040283529160200191610932565b820191906000526020600020905b81548152906001019060200180831161091557829003601f168201915b505050505081565b82805461094690610ed9565b90600052602060002090601f01602090048101928261096857600085556109af565b82601f1061098157805160ff19168380011785556109af565b828001600101855582156109af579182015b828111156109ae578251825591602001919060010190610993565b5b5090506109bc91906109c0565b5090565b5b808211156109d95760008160009055506001016109c1565b5090565b6000604051905090565b600080fd5b600080fd5b6000819050919050565b610a04816109f1565b8114610a0f57600080fd5b50565b600081359050610a21816109fb565b92915050565b600060208284031215610a3d57610a3c6109e7565b5b6000610a4b84828501610a12565b91505092915050565b600073ffffffffffffffffffffffffffffffffffffffff82169050919050565b6000610a7f82610a54565b9050919050565b610a8f81610a74565b8114610a9a57600080fd5b50565b600081359050610aac81610a86565b92915050565b600060208284031215610ac857610ac76109e7565b5b6000610ad684828501610a9d565b91505092915050565b60008115159050919050565b610af481610adf565b82525050565b6000602082019050610b0f6000830184610aeb565b92915050565b600081519050919050565b600082825260208201905092915050565b60005b83811015610b4f578082015181840152602081019050610b34565b83811115610b5e576000848401525b50505050565b6000601f19601f8301169050919050565b6000610b8082610b15565b610b8a8185610b20565b9350610b9a818560208601610b31565b610ba381610b64565b840191505092915050565b60006020820190508181036000830152610bc88184610b75565b905092915050565b610bd9816109f1565b82525050565b6000602082019050610bf46000830184610bd0565b92915050565b610c0381610a74565b82525050565b6000602082019050610c1e6000830184610bfa565b92915050565b600060a082019050610c396000830188610bd0565b610c466020830187610bfa565b610c536040830186610bd0565b610c606060830185610bd0565b610c6d6080830184610bd0565b9695505050505050565b600080fd5b600080fd5b7f4e487b7100000000000000000000000000000000000000000000000000000000600052604160045260246000fd5b610cb982610b64565b810181811067ffffffffffffffff82111715610cd857610cd7610c81565b5b80604052505050565b6000610ceb6109dd565b9050610cf78282610cb0565b919050565b600067ffffffffffffffff821115610d1757610d16610c81565b5b610d2082610b64565b9050602081019050919050565b82818337600083830152505050565b6000610d4f610d4a84610cfc565b610ce1565b905082815260208101848484011115610d6b57610d6a610c7c565b5b610d76848285610d2d565b509392505050565b600082601f830112610d9357610d92610c77565b5b8135610da3848260208601610d3c565b91505092915050565b600080600060608486031215610dc557610dc46109e7565b5b600084013567ffffffffffffffff811115610de357610de26109ec565b5b610def86828701610d7e565b9350506020610e0086828701610a12565b9250506040610e1186828701610a9d565b9150509250925092565b7f4e487b7100000000000000000000000000000000000000000000000000000000600052601260045260246000fd5b7f4e487b7100000000000000000000000000000000000000000000000000000000600052601160045260246000fd5b6000610e84826109f1565b9150610e8f836109f1565b925082610e9f57610e9e610e1b565b5b828204905092915050565b7f4e487b7100000000000000000000000000000000000000000000000000000000600052602260045260246000fd5b60006002820490506001821680610ef157607f821691505b602082108103610f0457610f03610eaa565b5b50919050565b6000610f15826109f1565b91507fffffffffffffffffffffffffffffffffffffffffffffffffffffffffffffffff8203610f4757610f46610e4a565b5b60018201905091905056fea26469706673582212206fa76fa659d8837c31721d9bd463bae6eb1299b2a68162bcd8ce8496194bee3e64736f6c634300080d0033",
  "immutableReferences": {},
  "source": "// SPDX-License-Identifier: GPL-3.0\npragma solidity ^0.8.13;\n\ncontract Campign {\n    struct Request {\n        string description;\n        uint256 value;\n        address recipient;\n        bool completed;\n        uint256 approvalCount;\n        mapping(address => bool) approvals;\n    }\n\n    mapping(address => bool) approvals;\n    string public campaignTitle;\n    string public campaignDescription;\n    string public coverImageURL;\n    uint256 public targetAmount;\n\n    mapping(uint256 => Request) requests;\n    uint256 numRequests;\n\n    uint256 public minContribution;\n    address public manager;\n    mapping(address => bool) public approvers;\n    uint256 private contributors;\n\n    constructor(uint256 _min, address sender) {\n        minContribution = _min;\n        manager = sender;\n    }\n\n    function contribute() public payable {\n        require(msg.value >= minContribution);\n        approvers[msg.sender] = true;\n        contributors++;\n    }\n\n    modifier restricted() {\n        require(msg.sender == manager);\n        _;\n    }\n\n    function createRequest(\n        string memory description,\n        uint256 value,\n        address recipient\n    ) public restricted {\n        // Request memory newRequest = requests.push();\n        Request storage newRequest = requests[numRequests++];\n        newRequest.description = description;\n        newRequest.value = value;\n        newRequest.recipient = recipient;\n        newRequest.completed = false;\n        // newRequest.approvals = {};\n        // Request memory newRequest = Request(description, value, recipient, false, 0);\n        // requests.push(newRequest);\n    }\n\n    function getSummaryOfContract()\n        public\n        view\n        returns (\n            uint256,\n            address,\n            uint256,\n            uint256,\n            uint256\n        )\n    {\n        return (\n            minContribution,\n            manager,\n            contributors,\n            numRequests,\n            address(this).balance\n        );\n    }\n\n    function getRequestCount() public view returns (uint256) {\n        return (numRequests);\n    }\n\n    function approveRequest(uint256 index) public {\n        Request storage ind = requests[index];\n        require(approvers[msg.sender]);\n        require(!ind.approvals[msg.sender]);\n\n        ind.approvals[msg.sender] = true;\n        ind.approvalCount++;\n    }\n\n    function finalizeRequest(uint256 index) public restricted {\n        Request storage request = requests[index];\n        require(!request.completed);\n        require(request.approvalCount > contributors / 2);\n        payable(request.recipient).transfer(request.value);\n        request.completed = true;\n    }\n}\n",
  "sourcePath": "/Users/sumukhahegde/Code/college_project/crowd-funding/solidity/contracts/Campaign.sol",
  "compiler": {
    "name": "solc",
    "version": "0.8.13+commit.abaa5c0e.Emscripten.clang"
  },
  "schemaVersion": "3.4.7",
  "updatedAt": "2022-05-17T18:20:12.698Z",
  "devdoc": {
    "kind": "dev",
    "methods": {},
    "version": 1
  },
  "userdoc": {
    "kind": "user",
    "methods": {},
    "version": 1
  }
}