{
  "contractName": "CampignFactory",
  "abi": [
    {
      "inputs": [
        {
          "internalType": "address",
          "name": "",
          "type": "address"
        }
      ],
      "name": "campaignDetail",
      "outputs": [
        {
          "internalType": "string",
          "name": "title",
          "type": "string"
        },
        {
          "internalType": "string",
          "name": "description",
          "type": "string"
        },
        {
          "internalType": "string",
          "name": "imageURL",
          "type": "string"
        },
        {
          "internalType": "uint256",
          "name": "targetAmount",
          "type": "uint256"
        }
      ],
      "stateMutability": "view",
      "type": "function",
      "constant": true
    },
    {
      "inputs": [
        {
          "internalType": "uint256",
          "name": "",
          "type": "uint256"
        }
      ],
      "name": "campains",
      "outputs": [
        {
          "internalType": "address",
          "name": "",
          "type": "address"
        }
      ],
      "stateMutability": "view",
      "type": "function",
      "constant": true
    },
    {
      "inputs": [
        {
          "internalType": "address",
          "name": "campaignAddress",
          "type": "address"
        }
      ],
      "name": "getCampaignDetail",
      "outputs": [
        {
          "components": [
            {
              "internalType": "string",
              "name": "title",
              "type": "string"
            },
            {
              "internalType": "string",
              "name": "description",
              "type": "string"
            },
            {
              "internalType": "string",
              "name": "imageURL",
              "type": "string"
            },
            {
              "internalType": "uint256",
              "name": "targetAmount",
              "type": "uint256"
            }
          ],
          "internalType": "struct CampignFactory.NewCampaign",
          "name": "",
          "type": "tuple"
        }
      ],
      "stateMutability": "view",
      "type": "function",
      "constant": true
    },
    {
      "inputs": [],
      "name": "getCampines",
      "outputs": [
        {
          "internalType": "address[]",
          "name": "",
          "type": "address[]"
        }
      ],
      "stateMutability": "view",
      "type": "function",
      "constant": true
    },
    {
      "inputs": [
        {
          "internalType": "uint256",
          "name": "minAmount",
          "type": "uint256"
        },
        {
          "internalType": "string",
          "name": "_title",
          "type": "string"
        },
        {
          "internalType": "string",
          "name": "_desc",
          "type": "string"
        },
        {
          "internalType": "string",
          "name": "_coverImage",
          "type": "string"
        },
        {
          "internalType": "uint256",
          "name": "_targetAmount",
          "type": "uint256"
        }
      ],
      "name": "deployContract",
      "outputs": [],
      "stateMutability": "payable",
      "type": "function",
      "payable": true
    }
  ],
  "bytecode": "0x608060405234801561001057600080fd5b5061223a806100206000396000f3fe608060405260043610620000505760003560e01c80631d6c096a14620000555780635800cb9614620000995780638eea2ae714620000c9578063a9d5cba314620000e9578063c29033e9146200012d575b600080fd5b3480156200006257600080fd5b506200008160048036038101906200007b91906200093a565b62000174565b60405162000090919062000aa4565b60405180910390f35b348015620000a657600080fd5b50620000b1620003a7565b604051620000c0919062000b96565b60405180910390f35b620000e76004803603810190620000e1919062000d3c565b62000437565b005b348015620000f657600080fd5b506200011560048036038101906200010f919062000e21565b620005bb565b60405162000124919062000e64565b60405180910390f35b3480156200013a57600080fd5b506200015960048036038101906200015391906200093a565b620005fb565b6040516200016b949392919062000ee4565b60405180910390f35b6200017e620007db565b600160008373ffffffffffffffffffffffffffffffffffffffff1673ffffffffffffffffffffffffffffffffffffffff168152602001908152602001600020604051806080016040529081600082018054620001da9062000f75565b80601f0160208091040260200160405190810160405280929190818152602001828054620002089062000f75565b8015620002595780601f106200022d5761010080835404028352916020019162000259565b820191906000526020600020905b8154815290600101906020018083116200023b57829003601f168201915b50505050508152602001600182018054620002749062000f75565b80601f0160208091040260200160405190810160405280929190818152602001828054620002a29062000f75565b8015620002f35780601f10620002c757610100808354040283529160200191620002f3565b820191906000526020600020905b815481529060010190602001808311620002d557829003601f168201915b505050505081526020016002820180546200030e9062000f75565b80601f01602080910402602001604051908101604052809291908181526020018280546200033c9062000f75565b80156200038d5780601f1062000361576101008083540402835291602001916200038d565b820191906000526020600020905b8154815290600101906020018083116200036f57829003601f168201915b505050505081526020016003820154815250509050919050565b606060008054806020026020016040519081016040528092919081815260200182805480156200042d57602002820191906000526020600020905b8160009054906101000a900473ffffffffffffffffffffffffffffffffffffffff1673ffffffffffffffffffffffffffffffffffffffff1681526020019060010190808311620003e2575b5050505050905090565b60008533604051620004499062000803565b6200045692919062000faa565b604051809103906000f08015801562000473573d6000803e3d6000fd5b50905062000480620007db565b8581600001819052508481602001819052508381604001819052508281606001818152505080600160008473ffffffffffffffffffffffffffffffffffffffff1673ffffffffffffffffffffffffffffffffffffffff16815260200190815260200160002060008201518160000190805190602001906200050392919062000811565b5060208201518160010190805190602001906200052292919062000811565b5060408201518160020190805190602001906200054192919062000811565b50606082015181600301559050506000829080600181540180825580915050600190039060005260206000200160009091909190916101000a81548173ffffffffffffffffffffffffffffffffffffffff021916908373ffffffffffffffffffffffffffffffffffffffff16021790555050505050505050565b60008181548110620005cc57600080fd5b906000526020600020016000915054906101000a900473ffffffffffffffffffffffffffffffffffffffff1681565b6001602052806000526040600020600091509050806000018054620006209062000f75565b80601f01602080910402602001604051908101604052809291908181526020018280546200064e9062000f75565b80156200069f5780601f1062000673576101008083540402835291602001916200069f565b820191906000526020600020905b8154815290600101906020018083116200068157829003601f168201915b505050505090806001018054620006b69062000f75565b80601f0160208091040260200160405190810160405280929190818152602001828054620006e49062000f75565b8015620007355780601f10620007095761010080835404028352916020019162000735565b820191906000526020600020905b8154815290600101906020018083116200071757829003601f168201915b5050505050908060020180546200074c9062000f75565b80601f01602080910402602001604051908101604052809291908181526020018280546200077a9062000f75565b8015620007cb5780601f106200079f57610100808354040283529160200191620007cb565b820191906000526020600020905b815481529060010190602001808311620007ad57829003601f168201915b5050505050908060030154905084565b6040518060800160405280606081526020016060815260200160608152602001600081525090565b61122d8062000fd883390190565b8280546200081f9062000f75565b90600052602060002090601f0160209004810192826200084357600085556200088f565b82601f106200085e57805160ff19168380011785556200088f565b828001600101855582156200088f579182015b828111156200088e57825182559160200191906001019062000871565b5b5090506200089e9190620008a2565b5090565b5b80821115620008bd576000816000905550600101620008a3565b5090565b6000604051905090565b600080fd5b600080fd5b600073ffffffffffffffffffffffffffffffffffffffff82169050919050565b60006200090282620008d5565b9050919050565b6200091481620008f5565b81146200092057600080fd5b50565b600081359050620009348162000909565b92915050565b600060208284031215620009535762000952620008cb565b5b6000620009638482850162000923565b91505092915050565b600081519050919050565b600082825260208201905092915050565b60005b83811015620009a85780820151818401526020810190506200098b565b83811115620009b8576000848401525b50505050565b6000601f19601f8301169050919050565b6000620009dc826200096c565b620009e8818562000977565b9350620009fa81856020860162000988565b62000a0581620009be565b840191505092915050565b6000819050919050565b62000a258162000a10565b82525050565b6000608083016000830151848203600086015262000a4a8282620009cf565b9150506020830151848203602086015262000a668282620009cf565b9150506040830151848203604086015262000a828282620009cf565b915050606083015162000a99606086018262000a1a565b508091505092915050565b6000602082019050818103600083015262000ac0818462000a2b565b905092915050565b600081519050919050565b600082825260208201905092915050565b6000819050602082019050919050565b62000aff81620008f5565b82525050565b600062000b13838362000af4565b60208301905092915050565b6000602082019050919050565b600062000b398262000ac8565b62000b45818562000ad3565b935062000b528362000ae4565b8060005b8381101562000b8957815162000b6d888262000b05565b975062000b7a8362000b1f565b92505060018101905062000b56565b5085935050505092915050565b6000602082019050818103600083015262000bb2818462000b2c565b905092915050565b62000bc58162000a10565b811462000bd157600080fd5b50565b60008135905062000be58162000bba565b92915050565b600080fd5b600080fd5b7f4e487b7100000000000000000000000000000000000000000000000000000000600052604160045260246000fd5b62000c2f82620009be565b810181811067ffffffffffffffff8211171562000c515762000c5062000bf5565b5b80604052505050565b600062000c66620008c1565b905062000c74828262000c24565b919050565b600067ffffffffffffffff82111562000c975762000c9662000bf5565b5b62000ca282620009be565b9050602081019050919050565b82818337600083830152505050565b600062000cd562000ccf8462000c79565b62000c5a565b90508281526020810184848401111562000cf45762000cf362000bf0565b5b62000d0184828562000caf565b509392505050565b600082601f83011262000d215762000d2062000beb565b5b813562000d3384826020860162000cbe565b91505092915050565b600080600080600060a0868803121562000d5b5762000d5a620008cb565b5b600062000d6b8882890162000bd4565b955050602086013567ffffffffffffffff81111562000d8f5762000d8e620008d0565b5b62000d9d8882890162000d09565b945050604086013567ffffffffffffffff81111562000dc15762000dc0620008d0565b5b62000dcf8882890162000d09565b935050606086013567ffffffffffffffff81111562000df35762000df2620008d0565b5b62000e018882890162000d09565b925050608062000e148882890162000bd4565b9150509295509295909350565b60006020828403121562000e3a5762000e39620008cb565b5b600062000e4a8482850162000bd4565b91505092915050565b62000e5e81620008f5565b82525050565b600060208201905062000e7b600083018462000e53565b92915050565b600082825260208201905092915050565b600062000e9f826200096c565b62000eab818562000e81565b935062000ebd81856020860162000988565b62000ec881620009be565b840191505092915050565b62000ede8162000a10565b82525050565b6000608082019050818103600083015262000f00818762000e92565b9050818103602083015262000f16818662000e92565b9050818103604083015262000f2c818562000e92565b905062000f3d606083018462000ed3565b95945050505050565b7f4e487b7100000000000000000000000000000000000000000000000000000000600052602260045260246000fd5b6000600282049050600182168062000f8e57607f821691505b60208210810362000fa45762000fa362000f46565b5b50919050565b600060408201905062000fc1600083018562000ed3565b62000fd0602083018462000e53565b939250505056fe60806040523480156200001157600080fd5b506040516200122d3803806200122d83398181016040528101906200003791906200012c565b8160078190555080600860006101000a81548173ffffffffffffffffffffffffffffffffffffffff021916908373ffffffffffffffffffffffffffffffffffffffff160217905550505062000173565b600080fd5b6000819050919050565b620000a1816200008c565b8114620000ad57600080fd5b50565b600081519050620000c18162000096565b92915050565b600073ffffffffffffffffffffffffffffffffffffffff82169050919050565b6000620000f482620000c7565b9050919050565b6200010681620000e7565b81146200011257600080fd5b50565b6000815190506200012681620000fb565b92915050565b6000806040838503121562000146576200014562000087565b5b60006200015685828601620000b0565b9250506020620001698582860162000115565b9150509250929050565b6110aa80620001836000396000f3fe6080604052600436106100c25760003560e01c80638a9cfd551161007f578063aeef75fd11610059578063aeef75fd1461025e578063d7bb99ba1461029f578063d7d1bbdb146102a9578063ed5a510d146102d2576100c2565b80638a9cfd55146101df578063953b8fb814610208578063aaffadf314610233576100c2565b80630a144391146100c7578063110842cb146101045780633fad18341461012f578063481c6a751461015a578063703731ef14610185578063835a6172146101b4575b600080fd5b3480156100d357600080fd5b506100ee60048036038101906100e99190610b17565b6102fd565b6040516100fb9190610b5f565b60405180910390f35b34801561011057600080fd5b5061011961031d565b6040516101269190610c13565b60405180910390f35b34801561013b57600080fd5b506101446103ab565b6040516101519190610c4e565b60405180910390f35b34801561016657600080fd5b5061016f6103b5565b60405161017c9190610c78565b60405180910390f35b34801561019157600080fd5b5061019a6103db565b6040516101ab959493929190610c93565b60405180910390f35b3480156101c057600080fd5b506101c9610421565b6040516101d69190610c13565b60405180910390f35b3480156101eb57600080fd5b5061020660048036038101906102019190610e47565b6104af565b005b34801561021457600080fd5b5061021d6105be565b60405161022a9190610c4e565b60405180910390f35b34801561023f57600080fd5b506102486105c4565b6040516102559190610c4e565b60405180910390f35b34801561026a57600080fd5b5061028560048036038101906102809190610eb6565b6105ca565b604051610296959493929190610ee3565b60405180910390f35b6102a76106ce565b005b3480156102b557600080fd5b506102d060048036038101906102cb9190610eb6565b61074f565b005b3480156102de57600080fd5b506102e76108b1565b6040516102f49190610c13565b60405180910390f35b60096020528060005260406000206000915054906101000a900460ff1681565b6002805461032a90610f6c565b80601f016020809104026020016040519081016040528092919081815260200182805461035690610f6c565b80156103a35780601f10610378576101008083540402835291602001916103a3565b820191906000526020600020905b81548152906001019060200180831161038657829003601f168201915b505050505081565b6000600654905090565b600860009054906101000a900473ffffffffffffffffffffffffffffffffffffffff1681565b6000806000806000600754600860009054906101000a900473ffffffffffffffffffffffffffffffffffffffff16600a5460065447945094509450945094509091929394565b6001805461042e90610f6c565b80601f016020809104026020016040519081016040528092919081815260200182805461045a90610f6c565b80156104a75780601f1061047c576101008083540402835291602001916104a7565b820191906000526020600020905b81548152906001019060200180831161048a57829003601f168201915b505050505081565b600860009054906101000a900473ffffffffffffffffffffffffffffffffffffffff1673ffffffffffffffffffffffffffffffffffffffff163373ffffffffffffffffffffffffffffffffffffffff161461050957600080fd5b6000600560006006600081548092919061052290610fcc565b91905055815260200190815260200160002090508381600001908051906020019061054e929190610a02565b50828160010181905550818160020160006101000a81548173ffffffffffffffffffffffffffffffffffffffff021916908373ffffffffffffffffffffffffffffffffffffffff16021790555060008160020160146101000a81548160ff02191690831515021790555050505050565b60045481565b60075481565b60008060006060600080600560008881526020019081526020016000209050806001015481600301548260020160009054906101000a900473ffffffffffffffffffffffffffffffffffffffff16836000018460020160149054906101000a900460ff1681805461063a90610f6c565b80601f016020809104026020016040519081016040528092919081815260200182805461066690610f6c565b80156106b35780601f10610688576101008083540402835291602001916106b3565b820191906000526020600020905b81548152906001019060200180831161069657829003601f168201915b50505050509150955095509550955095505091939590929450565b6007543410156106dd57600080fd5b6001600960003373ffffffffffffffffffffffffffffffffffffffff1673ffffffffffffffffffffffffffffffffffffffff16815260200190815260200160002060006101000a81548160ff021916908315150217905550600a600081548092919061074890610fcc565b9190505550565b6000600560008381526020019081526020016000209050600960003373ffffffffffffffffffffffffffffffffffffffff1673ffffffffffffffffffffffffffffffffffffffff16815260200190815260200160002060009054906101000a900460ff166107bc57600080fd5b8060040160003373ffffffffffffffffffffffffffffffffffffffff1673ffffffffffffffffffffffffffffffffffffffff16815260200190815260200160002060009054906101000a900460ff161561081557600080fd5b60018160040160003373ffffffffffffffffffffffffffffffffffffffff1673ffffffffffffffffffffffffffffffffffffffff16815260200190815260200160002060006101000a81548160ff02191690831515021790555080600301600081548092919061088490610fcc565b91905055506002600a546108989190611043565b816003015411156108ad576108ac8261093f565b5b5050565b600380546108be90610f6c565b80601f01602080910402602001604051908101604052809291908181526020018280546108ea90610f6c565b80156109375780601f1061090c57610100808354040283529160200191610937565b820191906000526020600020905b81548152906001019060200180831161091a57829003601f168201915b505050505081565b60006005600083815260200190815260200160002090508060020160149054906101000a900460ff161561097257600080fd5b8060020160009054906101000a900473ffffffffffffffffffffffffffffffffffffffff1673ffffffffffffffffffffffffffffffffffffffff166108fc82600101549081150290604051600060405180830381858888f193505050501580156109e0573d6000803e3d6000fd5b5060018160020160146101000a81548160ff0219169083151502179055505050565b828054610a0e90610f6c565b90600052602060002090601f016020900481019282610a305760008555610a77565b82601f10610a4957805160ff1916838001178555610a77565b82800160010185558215610a77579182015b82811115610a76578251825591602001919060010190610a5b565b5b509050610a849190610a88565b5090565b5b80821115610aa1576000816000905550600101610a89565b5090565b6000604051905090565b600080fd5b600080fd5b600073ffffffffffffffffffffffffffffffffffffffff82169050919050565b6000610ae482610ab9565b9050919050565b610af481610ad9565b8114610aff57600080fd5b50565b600081359050610b1181610aeb565b92915050565b600060208284031215610b2d57610b2c610aaf565b5b6000610b3b84828501610b02565b91505092915050565b60008115159050919050565b610b5981610b44565b82525050565b6000602082019050610b746000830184610b50565b92915050565b600081519050919050565b600082825260208201905092915050565b60005b83811015610bb4578082015181840152602081019050610b99565b83811115610bc3576000848401525b50505050565b6000601f19601f8301169050919050565b6000610be582610b7a565b610bef8185610b85565b9350610bff818560208601610b96565b610c0881610bc9565b840191505092915050565b60006020820190508181036000830152610c2d8184610bda565b905092915050565b6000819050919050565b610c4881610c35565b82525050565b6000602082019050610c636000830184610c3f565b92915050565b610c7281610ad9565b82525050565b6000602082019050610c8d6000830184610c69565b92915050565b600060a082019050610ca86000830188610c3f565b610cb56020830187610c69565b610cc26040830186610c3f565b610ccf6060830185610c3f565b610cdc6080830184610c3f565b9695505050505050565b600080fd5b600080fd5b7f4e487b7100000000000000000000000000000000000000000000000000000000600052604160045260246000fd5b610d2882610bc9565b810181811067ffffffffffffffff82111715610d4757610d46610cf0565b5b80604052505050565b6000610d5a610aa5565b9050610d668282610d1f565b919050565b600067ffffffffffffffff821115610d8657610d85610cf0565b5b610d8f82610bc9565b9050602081019050919050565b82818337600083830152505050565b6000610dbe610db984610d6b565b610d50565b905082815260208101848484011115610dda57610dd9610ceb565b5b610de5848285610d9c565b509392505050565b600082601f830112610e0257610e01610ce6565b5b8135610e12848260208601610dab565b91505092915050565b610e2481610c35565b8114610e2f57600080fd5b50565b600081359050610e4181610e1b565b92915050565b600080600060608486031215610e6057610e5f610aaf565b5b600084013567ffffffffffffffff811115610e7e57610e7d610ab4565b5b610e8a86828701610ded565b9350506020610e9b86828701610e32565b9250506040610eac86828701610b02565b9150509250925092565b600060208284031215610ecc57610ecb610aaf565b5b6000610eda84828501610e32565b91505092915050565b600060a082019050610ef86000830188610c3f565b610f056020830187610c3f565b610f126040830186610c69565b8181036060830152610f248185610bda565b9050610f336080830184610b50565b9695505050505050565b7f4e487b7100000000000000000000000000000000000000000000000000000000600052602260045260246000fd5b60006002820490506001821680610f8457607f821691505b602082108103610f9757610f96610f3d565b5b50919050565b7f4e487b7100000000000000000000000000000000000000000000000000000000600052601160045260246000fd5b6000610fd782610c35565b91507fffffffffffffffffffffffffffffffffffffffffffffffffffffffffffffffff820361100957611008610f9d565b5b600182019050919050565b7f4e487b7100000000000000000000000000000000000000000000000000000000600052601260045260246000fd5b600061104e82610c35565b915061105983610c35565b92508261106957611068611014565b5b82820490509291505056fea2646970667358221220d6e353548dff7c0e49f7c653404ff57c6bea8fb3e1b5374760b6ae48e54dc9cf64736f6c634300080d0033a264697066735822122096280f9f14e8afffc8cc00ea289ad5df0fca245f7ae3a7aca4170e06b95d23c264736f6c634300080d0033",
  "immutableReferences": {},
  "source": "// SPDX-License-Identifier: GPL-3.0\npragma solidity ^0.8.13;\nimport \"./Campaign.sol\";\n\ncontract CampignFactory {\n    struct NewCampaign {\n        string title;\n        string description;\n        string imageURL;\n        uint256 targetAmount;\n    }\n    address[] public campains;\n    mapping(address => NewCampaign) public campaignDetail;\n\n    function getCampaignDetail(address campaignAddress)\n        public\n        view\n        returns (NewCampaign memory)\n    {\n        return campaignDetail[campaignAddress];\n    }\n\n    function getCampines() public view returns (address[] memory) {\n        return campains;\n    }\n\n    function deployContract(\n        uint256 minAmount,\n        string memory _title,\n        string memory _desc,\n        string memory _coverImage,\n        uint256 _targetAmount\n    ) public payable {\n        address deployedCampaign = address(new Campign(minAmount, msg.sender));\n\n        NewCampaign memory newCampaign;\n        newCampaign.title = _title;\n        newCampaign.description = _desc;\n        newCampaign.imageURL = _coverImage;\n        newCampaign.targetAmount = _targetAmount;\n\n        campaignDetail[deployedCampaign] = newCampaign;\n        campains.push(deployedCampaign);\n    }\n}\n",
  "sourcePath": "/Users/sumukhahegde/Code/college_project/crowd-funding/solidity/contracts/Factory.sol",
  "compiler": {
    "name": "solc",
    "version": "0.8.13+commit.abaa5c0e.Emscripten.clang"
  },
  "schemaVersion": "3.4.7",
  "updatedAt": "2022-05-29T06:11:37.037Z",
  "networkType": "ethereum",
  "devdoc": {
    "kind": "dev",
    "methods": {},
    "version": 1
  },
  "userdoc": {
    "kind": "user",
    "methods": {},
    "version": 1
  }
}