{
  "contractName": "CampignFactory",
  "abi": [
    {
      "inputs": [
        {
          "internalType": "address",
          "name": "",
          "type": "address"
        }
      ],
      "name": "campaignDetail",
      "outputs": [
        {
          "internalType": "string",
          "name": "title",
          "type": "string"
        },
        {
          "internalType": "string",
          "name": "description",
          "type": "string"
        },
        {
          "internalType": "string",
          "name": "imageURL",
          "type": "string"
        },
        {
          "internalType": "uint256",
          "name": "targetAmount",
          "type": "uint256"
        }
      ],
      "stateMutability": "view",
      "type": "function",
      "constant": true
    },
    {
      "inputs": [
        {
          "internalType": "uint256",
          "name": "",
          "type": "uint256"
        }
      ],
      "name": "campains",
      "outputs": [
        {
          "internalType": "address",
          "name": "",
          "type": "address"
        }
      ],
      "stateMutability": "view",
      "type": "function",
      "constant": true
    },
    {
      "inputs": [
        {
          "internalType": "address",
          "name": "campaignAddress",
          "type": "address"
        }
      ],
      "name": "getCampaignDetail",
      "outputs": [
        {
          "components": [
            {
              "internalType": "string",
              "name": "title",
              "type": "string"
            },
            {
              "internalType": "string",
              "name": "description",
              "type": "string"
            },
            {
              "internalType": "string",
              "name": "imageURL",
              "type": "string"
            },
            {
              "internalType": "uint256",
              "name": "targetAmount",
              "type": "uint256"
            }
          ],
          "internalType": "struct CampignFactory.NewCampaign",
          "name": "",
          "type": "tuple"
        }
      ],
      "stateMutability": "view",
      "type": "function",
      "constant": true
    },
    {
      "inputs": [],
      "name": "getCampines",
      "outputs": [
        {
          "internalType": "address[]",
          "name": "",
          "type": "address[]"
        }
      ],
      "stateMutability": "view",
      "type": "function",
      "constant": true
    },
    {
      "inputs": [
        {
          "internalType": "uint256",
          "name": "minAmount",
          "type": "uint256"
        },
        {
          "internalType": "string",
          "name": "_title",
          "type": "string"
        },
        {
          "internalType": "string",
          "name": "_desc",
          "type": "string"
        },
        {
          "internalType": "string",
          "name": "_coverImage",
          "type": "string"
        },
        {
          "internalType": "uint256",
          "name": "_targetAmount",
          "type": "uint256"
        }
      ],
      "name": "deployContract",
      "outputs": [],
      "stateMutability": "payable",
      "type": "function",
      "payable": true
    }
  ],
  "bytecode": "0x608060405234801561001057600080fd5b50612118806100206000396000f3fe608060405260043610620000505760003560e01c80631d6c096a14620000555780635800cb9614620000995780638eea2ae714620000c9578063a9d5cba314620000e9578063c29033e9146200012d575b600080fd5b3480156200006257600080fd5b506200008160048036038101906200007b91906200093a565b62000174565b60405162000090919062000aa4565b60405180910390f35b348015620000a657600080fd5b50620000b1620003a7565b604051620000c0919062000b96565b60405180910390f35b620000e76004803603810190620000e1919062000d3c565b62000437565b005b348015620000f657600080fd5b506200011560048036038101906200010f919062000e21565b620005bb565b60405162000124919062000e64565b60405180910390f35b3480156200013a57600080fd5b506200015960048036038101906200015391906200093a565b620005fb565b6040516200016b949392919062000ee4565b60405180910390f35b6200017e620007db565b600160008373ffffffffffffffffffffffffffffffffffffffff1673ffffffffffffffffffffffffffffffffffffffff168152602001908152602001600020604051806080016040529081600082018054620001da9062000f75565b80601f0160208091040260200160405190810160405280929190818152602001828054620002089062000f75565b8015620002595780601f106200022d5761010080835404028352916020019162000259565b820191906000526020600020905b8154815290600101906020018083116200023b57829003601f168201915b50505050508152602001600182018054620002749062000f75565b80601f0160208091040260200160405190810160405280929190818152602001828054620002a29062000f75565b8015620002f35780601f10620002c757610100808354040283529160200191620002f3565b820191906000526020600020905b815481529060010190602001808311620002d557829003601f168201915b505050505081526020016002820180546200030e9062000f75565b80601f01602080910402602001604051908101604052809291908181526020018280546200033c9062000f75565b80156200038d5780601f1062000361576101008083540402835291602001916200038d565b820191906000526020600020905b8154815290600101906020018083116200036f57829003601f168201915b505050505081526020016003820154815250509050919050565b606060008054806020026020016040519081016040528092919081815260200182805480156200042d57602002820191906000526020600020905b8160009054906101000a900473ffffffffffffffffffffffffffffffffffffffff1673ffffffffffffffffffffffffffffffffffffffff1681526020019060010190808311620003e2575b5050505050905090565b60008533604051620004499062000803565b6200045692919062000faa565b604051809103906000f08015801562000473573d6000803e3d6000fd5b50905062000480620007db565b8581600001819052508481602001819052508381604001819052508281606001818152505080600160008473ffffffffffffffffffffffffffffffffffffffff1673ffffffffffffffffffffffffffffffffffffffff16815260200190815260200160002060008201518160000190805190602001906200050392919062000811565b5060208201518160010190805190602001906200052292919062000811565b5060408201518160020190805190602001906200054192919062000811565b50606082015181600301559050506000829080600181540180825580915050600190039060005260206000200160009091909190916101000a81548173ffffffffffffffffffffffffffffffffffffffff021916908373ffffffffffffffffffffffffffffffffffffffff16021790555050505050505050565b60008181548110620005cc57600080fd5b906000526020600020016000915054906101000a900473ffffffffffffffffffffffffffffffffffffffff1681565b6001602052806000526040600020600091509050806000018054620006209062000f75565b80601f01602080910402602001604051908101604052809291908181526020018280546200064e9062000f75565b80156200069f5780601f1062000673576101008083540402835291602001916200069f565b820191906000526020600020905b8154815290600101906020018083116200068157829003601f168201915b505050505090806001018054620006b69062000f75565b80601f0160208091040260200160405190810160405280929190818152602001828054620006e49062000f75565b8015620007355780601f10620007095761010080835404028352916020019162000735565b820191906000526020600020905b8154815290600101906020018083116200071757829003601f168201915b5050505050908060020180546200074c9062000f75565b80601f01602080910402602001604051908101604052809291908181526020018280546200077a9062000f75565b8015620007cb5780601f106200079f57610100808354040283529160200191620007cb565b820191906000526020600020905b815481529060010190602001808311620007ad57829003601f168201915b5050505050908060030154905084565b6040518060800160405280606081526020016060815260200160608152602001600081525090565b61110b8062000fd883390190565b8280546200081f9062000f75565b90600052602060002090601f0160209004810192826200084357600085556200088f565b82601f106200085e57805160ff19168380011785556200088f565b828001600101855582156200088f579182015b828111156200088e57825182559160200191906001019062000871565b5b5090506200089e9190620008a2565b5090565b5b80821115620008bd576000816000905550600101620008a3565b5090565b6000604051905090565b600080fd5b600080fd5b600073ffffffffffffffffffffffffffffffffffffffff82169050919050565b60006200090282620008d5565b9050919050565b6200091481620008f5565b81146200092057600080fd5b50565b600081359050620009348162000909565b92915050565b600060208284031215620009535762000952620008cb565b5b6000620009638482850162000923565b91505092915050565b600081519050919050565b600082825260208201905092915050565b60005b83811015620009a85780820151818401526020810190506200098b565b83811115620009b8576000848401525b50505050565b6000601f19601f8301169050919050565b6000620009dc826200096c565b620009e8818562000977565b9350620009fa81856020860162000988565b62000a0581620009be565b840191505092915050565b6000819050919050565b62000a258162000a10565b82525050565b6000608083016000830151848203600086015262000a4a8282620009cf565b9150506020830151848203602086015262000a668282620009cf565b9150506040830151848203604086015262000a828282620009cf565b915050606083015162000a99606086018262000a1a565b508091505092915050565b6000602082019050818103600083015262000ac0818462000a2b565b905092915050565b600081519050919050565b600082825260208201905092915050565b6000819050602082019050919050565b62000aff81620008f5565b82525050565b600062000b13838362000af4565b60208301905092915050565b6000602082019050919050565b600062000b398262000ac8565b62000b45818562000ad3565b935062000b528362000ae4565b8060005b8381101562000b8957815162000b6d888262000b05565b975062000b7a8362000b1f565b92505060018101905062000b56565b5085935050505092915050565b6000602082019050818103600083015262000bb2818462000b2c565b905092915050565b62000bc58162000a10565b811462000bd157600080fd5b50565b60008135905062000be58162000bba565b92915050565b600080fd5b600080fd5b7f4e487b7100000000000000000000000000000000000000000000000000000000600052604160045260246000fd5b62000c2f82620009be565b810181811067ffffffffffffffff8211171562000c515762000c5062000bf5565b5b80604052505050565b600062000c66620008c1565b905062000c74828262000c24565b919050565b600067ffffffffffffffff82111562000c975762000c9662000bf5565b5b62000ca282620009be565b9050602081019050919050565b82818337600083830152505050565b600062000cd562000ccf8462000c79565b62000c5a565b90508281526020810184848401111562000cf45762000cf362000bf0565b5b62000d0184828562000caf565b509392505050565b600082601f83011262000d215762000d2062000beb565b5b813562000d3384826020860162000cbe565b91505092915050565b600080600080600060a0868803121562000d5b5762000d5a620008cb565b5b600062000d6b8882890162000bd4565b955050602086013567ffffffffffffffff81111562000d8f5762000d8e620008d0565b5b62000d9d8882890162000d09565b945050604086013567ffffffffffffffff81111562000dc15762000dc0620008d0565b5b62000dcf8882890162000d09565b935050606086013567ffffffffffffffff81111562000df35762000df2620008d0565b5b62000e018882890162000d09565b925050608062000e148882890162000bd4565b9150509295509295909350565b60006020828403121562000e3a5762000e39620008cb565b5b600062000e4a8482850162000bd4565b91505092915050565b62000e5e81620008f5565b82525050565b600060208201905062000e7b600083018462000e53565b92915050565b600082825260208201905092915050565b600062000e9f826200096c565b62000eab818562000e81565b935062000ebd81856020860162000988565b62000ec881620009be565b840191505092915050565b62000ede8162000a10565b82525050565b6000608082019050818103600083015262000f00818762000e92565b9050818103602083015262000f16818662000e92565b9050818103604083015262000f2c818562000e92565b905062000f3d606083018462000ed3565b95945050505050565b7f4e487b7100000000000000000000000000000000000000000000000000000000600052602260045260246000fd5b6000600282049050600182168062000f8e57607f821691505b60208210810362000fa45762000fa362000f46565b5b50919050565b600060408201905062000fc1600083018562000ed3565b62000fd0602083018462000e53565b939250505056fe60806040523480156200001157600080fd5b506040516200110b3803806200110b83398181016040528101906200003791906200012c565b8160078190555080600860006101000a81548173ffffffffffffffffffffffffffffffffffffffff021916908373ffffffffffffffffffffffffffffffffffffffff160217905550505062000173565b600080fd5b6000819050919050565b620000a1816200008c565b8114620000ad57600080fd5b50565b600081519050620000c18162000096565b92915050565b600073ffffffffffffffffffffffffffffffffffffffff82169050919050565b6000620000f482620000c7565b9050919050565b6200010681620000e7565b81146200011257600080fd5b50565b6000815190506200012681620000fb565b92915050565b6000806040838503121562000146576200014562000087565b5b60006200015685828601620000b0565b9250506020620001698582860162000115565b9150509250929050565b610f8880620001836000396000f3fe6080604052600436106100c25760003560e01c8063835a61721161007f578063aaffadf311610059578063aaffadf31461025c578063d7bb99ba14610287578063d7d1bbdb14610291578063ed5a510d146102ba576100c2565b8063835a6172146101dd5780638a9cfd5514610208578063953b8fb814610231576100c2565b806303441006146100c75780630a144391146100f0578063110842cb1461012d5780633fad183414610158578063481c6a7514610183578063703731ef146101ae575b600080fd5b3480156100d357600080fd5b506100ee60048036038101906100e99190610a27565b6102e5565b005b3480156100fc57600080fd5b5061011760048036038101906101129190610ab2565b610420565b6040516101249190610afa565b60405180910390f35b34801561013957600080fd5b50610142610440565b60405161014f9190610bae565b60405180910390f35b34801561016457600080fd5b5061016d6104ce565b60405161017a9190610bdf565b60405180910390f35b34801561018f57600080fd5b506101986104d8565b6040516101a59190610c09565b60405180910390f35b3480156101ba57600080fd5b506101c36104fe565b6040516101d4959493929190610c24565b60405180910390f35b3480156101e957600080fd5b506101f2610544565b6040516101ff9190610bae565b60405180910390f35b34801561021457600080fd5b5061022f600480360381019061022a9190610dac565b6105d2565b005b34801561023d57600080fd5b506102466106e1565b6040516102539190610bdf565b60405180910390f35b34801561026857600080fd5b506102716106e7565b60405161027e9190610bdf565b60405180910390f35b61028f6106ed565b005b34801561029d57600080fd5b506102b860048036038101906102b39190610a27565b61076e565b005b3480156102c657600080fd5b506102cf6108ac565b6040516102dc9190610bae565b60405180910390f35b600860009054906101000a900473ffffffffffffffffffffffffffffffffffffffff1673ffffffffffffffffffffffffffffffffffffffff163373ffffffffffffffffffffffffffffffffffffffff161461033f57600080fd5b60006005600083815260200190815260200160002090508060020160149054906101000a900460ff161561037257600080fd5b6002600a546103819190610e79565b81600301541161039057600080fd5b8060020160009054906101000a900473ffffffffffffffffffffffffffffffffffffffff1673ffffffffffffffffffffffffffffffffffffffff166108fc82600101549081150290604051600060405180830381858888f193505050501580156103fe573d6000803e3d6000fd5b5060018160020160146101000a81548160ff0219169083151502179055505050565b60096020528060005260406000206000915054906101000a900460ff1681565b6002805461044d90610ed9565b80601f016020809104026020016040519081016040528092919081815260200182805461047990610ed9565b80156104c65780601f1061049b576101008083540402835291602001916104c6565b820191906000526020600020905b8154815290600101906020018083116104a957829003601f168201915b505050505081565b6000600654905090565b600860009054906101000a900473ffffffffffffffffffffffffffffffffffffffff1681565b6000806000806000600754600860009054906101000a900473ffffffffffffffffffffffffffffffffffffffff16600a5460065447945094509450945094509091929394565b6001805461055190610ed9565b80601f016020809104026020016040519081016040528092919081815260200182805461057d90610ed9565b80156105ca5780601f1061059f576101008083540402835291602001916105ca565b820191906000526020600020905b8154815290600101906020018083116105ad57829003601f168201915b505050505081565b600860009054906101000a900473ffffffffffffffffffffffffffffffffffffffff1673ffffffffffffffffffffffffffffffffffffffff163373ffffffffffffffffffffffffffffffffffffffff161461062c57600080fd5b6000600560006006600081548092919061064590610f0a565b91905055815260200190815260200160002090508381600001908051906020019061067192919061093a565b50828160010181905550818160020160006101000a81548173ffffffffffffffffffffffffffffffffffffffff021916908373ffffffffffffffffffffffffffffffffffffffff16021790555060008160020160146101000a81548160ff02191690831515021790555050505050565b60045481565b60075481565b6007543410156106fc57600080fd5b6001600960003373ffffffffffffffffffffffffffffffffffffffff1673ffffffffffffffffffffffffffffffffffffffff16815260200190815260200160002060006101000a81548160ff021916908315150217905550600a600081548092919061076790610f0a565b9190505550565b6000600560008381526020019081526020016000209050600960003373ffffffffffffffffffffffffffffffffffffffff1673ffffffffffffffffffffffffffffffffffffffff16815260200190815260200160002060009054906101000a900460ff166107db57600080fd5b8060040160003373ffffffffffffffffffffffffffffffffffffffff1673ffffffffffffffffffffffffffffffffffffffff16815260200190815260200160002060009054906101000a900460ff161561083457600080fd5b60018160040160003373ffffffffffffffffffffffffffffffffffffffff1673ffffffffffffffffffffffffffffffffffffffff16815260200190815260200160002060006101000a81548160ff0219169083151502179055508060030160008154809291906108a390610f0a565b91905055505050565b600380546108b990610ed9565b80601f01602080910402602001604051908101604052809291908181526020018280546108e590610ed9565b80156109325780601f1061090757610100808354040283529160200191610932565b820191906000526020600020905b81548152906001019060200180831161091557829003601f168201915b505050505081565b82805461094690610ed9565b90600052602060002090601f01602090048101928261096857600085556109af565b82601f1061098157805160ff19168380011785556109af565b828001600101855582156109af579182015b828111156109ae578251825591602001919060010190610993565b5b5090506109bc91906109c0565b5090565b5b808211156109d95760008160009055506001016109c1565b5090565b6000604051905090565b600080fd5b600080fd5b6000819050919050565b610a04816109f1565b8114610a0f57600080fd5b50565b600081359050610a21816109fb565b92915050565b600060208284031215610a3d57610a3c6109e7565b5b6000610a4b84828501610a12565b91505092915050565b600073ffffffffffffffffffffffffffffffffffffffff82169050919050565b6000610a7f82610a54565b9050919050565b610a8f81610a74565b8114610a9a57600080fd5b50565b600081359050610aac81610a86565b92915050565b600060208284031215610ac857610ac76109e7565b5b6000610ad684828501610a9d565b91505092915050565b60008115159050919050565b610af481610adf565b82525050565b6000602082019050610b0f6000830184610aeb565b92915050565b600081519050919050565b600082825260208201905092915050565b60005b83811015610b4f578082015181840152602081019050610b34565b83811115610b5e576000848401525b50505050565b6000601f19601f8301169050919050565b6000610b8082610b15565b610b8a8185610b20565b9350610b9a818560208601610b31565b610ba381610b64565b840191505092915050565b60006020820190508181036000830152610bc88184610b75565b905092915050565b610bd9816109f1565b82525050565b6000602082019050610bf46000830184610bd0565b92915050565b610c0381610a74565b82525050565b6000602082019050610c1e6000830184610bfa565b92915050565b600060a082019050610c396000830188610bd0565b610c466020830187610bfa565b610c536040830186610bd0565b610c606060830185610bd0565b610c6d6080830184610bd0565b9695505050505050565b600080fd5b600080fd5b7f4e487b7100000000000000000000000000000000000000000000000000000000600052604160045260246000fd5b610cb982610b64565b810181811067ffffffffffffffff82111715610cd857610cd7610c81565b5b80604052505050565b6000610ceb6109dd565b9050610cf78282610cb0565b919050565b600067ffffffffffffffff821115610d1757610d16610c81565b5b610d2082610b64565b9050602081019050919050565b82818337600083830152505050565b6000610d4f610d4a84610cfc565b610ce1565b905082815260208101848484011115610d6b57610d6a610c7c565b5b610d76848285610d2d565b509392505050565b600082601f830112610d9357610d92610c77565b5b8135610da3848260208601610d3c565b91505092915050565b600080600060608486031215610dc557610dc46109e7565b5b600084013567ffffffffffffffff811115610de357610de26109ec565b5b610def86828701610d7e565b9350506020610e0086828701610a12565b9250506040610e1186828701610a9d565b9150509250925092565b7f4e487b7100000000000000000000000000000000000000000000000000000000600052601260045260246000fd5b7f4e487b7100000000000000000000000000000000000000000000000000000000600052601160045260246000fd5b6000610e84826109f1565b9150610e8f836109f1565b925082610e9f57610e9e610e1b565b5b828204905092915050565b7f4e487b7100000000000000000000000000000000000000000000000000000000600052602260045260246000fd5b60006002820490506001821680610ef157607f821691505b602082108103610f0457610f03610eaa565b5b50919050565b6000610f15826109f1565b91507fffffffffffffffffffffffffffffffffffffffffffffffffffffffffffffffff8203610f4757610f46610e4a565b5b60018201905091905056fea26469706673582212206fa76fa659d8837c31721d9bd463bae6eb1299b2a68162bcd8ce8496194bee3e64736f6c634300080d0033a26469706673582212205e3e5ca0ad7d2014fb1695372b2f0aaeb16b6f9776b7dab0a3cb69c22d5c2afb64736f6c634300080d0033",
  "immutableReferences": {},
  "source": "// SPDX-License-Identifier: GPL-3.0\npragma solidity ^0.8.13;\nimport \"./Campaign.sol\";\n\ncontract CampignFactory {\n    struct NewCampaign {\n        string title;\n        string description;\n        string imageURL;\n        uint256 targetAmount;\n    }\n    address[] public campains;\n    mapping(address => NewCampaign) public campaignDetail;\n\n    function getCampaignDetail(address campaignAddress)\n        public\n        view\n        returns (NewCampaign memory)\n    {\n        return campaignDetail[campaignAddress];\n    }\n\n    function getCampines() public view returns (address[] memory) {\n        return campains;\n    }\n\n    function deployContract(\n        uint256 minAmount,\n        string memory _title,\n        string memory _desc,\n        string memory _coverImage,\n        uint256 _targetAmount\n    ) public payable {\n        address deployedCampaign = address(new Campign(minAmount, msg.sender));\n\n        NewCampaign memory newCampaign;\n        newCampaign.title = _title;\n        newCampaign.description = _desc;\n        newCampaign.imageURL = _coverImage;\n        newCampaign.targetAmount = _targetAmount;\n\n        campaignDetail[deployedCampaign] = newCampaign;\n\n        campains.push(deployedCampaign);\n    }\n}\n",
  "sourcePath": "/Users/sumukhahegde/Code/college_project/crowd-funding/solidity/contracts/Factory.sol",
  "compiler": {
    "name": "solc",
    "version": "0.8.13+commit.abaa5c0e.Emscripten.clang"
  },
  "schemaVersion": "3.4.7",
  "updatedAt": "2022-05-15T14:05:48.905Z",
  "networkType": "ethereum",
  "devdoc": {
    "kind": "dev",
    "methods": {},
    "version": 1
  },
  "userdoc": {
    "kind": "user",
    "methods": {},
    "version": 1
  }
}